:02000000762860
:1000060083120313FB01FA01F9018030F800F10CA9
:10001600F00C031C17287408F90775080318750FE8
:10002600FA070318FB0A0310F01F1F287408FA07C3
:1000360075080318750FFB07FB0CFA0CF90CF80C86
:10004600031C0A287B08F3007A08F2007908F100FD
:060056007808F00008002C
:0C005C008312031395011712971208007D
:10006800831603131208013EF000F1010318F10A88
:1000780083122208F400F50103200630F20070080C
:10008800F4007108F500720803194F28F50CF40CF8
:10009800F513FF3E48280430F1007408F000710899
:1000A80003195A28F00D7010FF3E5428303070059F
:1000B800F3007408F0007508F100F10CF00CF1136E
:1000C800F10CF00CF113700895000F3097057308C8
:0400D8009704080081
:1000DC00831603130711831212150C3097040800B2
:1000EC008312031312109210C730831692002E2025
:0A00FC00C030A20034206E208228DC
:02400E004A2F37
:00000001FF
