:020000000328D3
:10000600FF30831603138500FF30870086018312B5
:100016008601071C2D28FF3086000630FB001330B2
:10002600FC00AD30FD00FD0B1628FC0B1628FB0B63
:1000360016280000000086010630FB001330FC0085
:10004600AD30FD00FD0B2528FC0B2528FB0B2528D4
:100056000000000007184F28AA3086000330FB0076
:100066008A30FC005530FD00FD0B3728FC0B372885
:10007600FB0B372800000000553086000330FB00DC
:100086008A30FC005530FD00FD0B4728FC0B472845
:0C009600FB0B4728000000000C2850283D
:02400E004A2F37
:00000001FF
