:020000000A28CC
:0E0006008312031321088A00200882000800DC
:10001400831603138601831286017208663EF0007C
:1000240000300318013E7307F1007008A000710846
:10003400A10003208A110A128600F20A0319F30AA6
:100044000630FB001330FC00AD30FD00FD0B28280A
:10005400FC0B2828FB0B2828000000000030730646
:10006400031D362809307206031D64287208663E93
:10007400F00000300318013E7307F1007008A0007F
:100084007108A10003208A110A1286000630FB00C1
:100094001330FC00AD30FD00FD0B4E28FC0B4E2848
:1000A400FB0B4E28000000000130F202031CF30396
:1000B40000307306031D602800307206031D632898
:0800C400642838280F28652884
:1000CC003F3406345B344F3466346D347D3407343E
:0400DC007F346F34CA
:02400E004A2F37
:00000001FF
