:020000000328D3
:100006000F3083160313860083128601061C4B28C5
:10001600861C1E2806191E2886191E2806168230DA
:10002600FC00DD30FD00FD0B1628FC0B1628000039
:10003600000006124A2886183528061D3528861916
:10004600352806160B30FB002630FC005D30FD001F
:10005600FD0B2B28FC0B2B28FB0B2B28000000008C
:1000660006124A2886184A2806194A28861D4A284A
:1000760006161A30FB005E30FC006E30FD00FD0BEC
:100086004228FC0B4228FB0B422800000612860180
:0400960009284C28C1
:02400E004A2F37
:00000001FF
