:020000000129D4
:10000600103083120313FD00FD0B072800000800C3
:10001600083083120313FC002330FD00FD0B11286A
:06002600FC0B112808008C
:04002C0000000800C8
:1000300083120313AD1B1E2886111F2886152D1B46
:100040002328061124280615AD1A282886102928E9
:1000500086142D1A2D2806102E280614271832284B
:10006000061633280612861616208612AD193A286F
:1000700086113B2886152D193F28061140280615A4
:10008000AD1844288610452886142D1849280610D6
:100090004A28061427184E2806164F2806128616D8
:1000A00016208612271C56280B20572803200800EC
:0E00B0008312031326088A0025088200080028
:1000BE008312031327102C08AD00182027140800F4
:1000CE008316031386120612061086100611861169
:1000DE0083128612061286110611861006100B2048
:1000EE000B200B20861406148616162086120B2063
:1000FE008616162086120B208616162086120B20C8
:10010E0006108616162086120B20861616208612CC
:10011E00861086158616162086120B20861106145A
:10012E0086161620861206108616162086120B20AC
:10013E0086161620861206148616162086120B2098
:10014E0006108616162086128615061586140614B7
:0C015E008616162086120B2027140800BD
:10016A00C728803083120313A800DA28C030A800F9
:10017A00DA289430A800DA28D430A800DA288030A7
:10018A00A800DA28831203132808013A0319B628AB
:10019A002808023A0319BB282808033A0319BE287B
:1001AA002808043A0319C128C4282903F00028089A
:1001BA00F0077008A8007008AD0018202710AB01DE
:1001CA002B082A07840000080319F3282B082A079A
:1001DA0084000008AC005F20AB0AE5282714080059
:1001EA0058208A110A128000840AA50A0319A60A4D
:0801FA00F003031DF5280800C5
:10020200493083120313A0004830A1004530A200F8
:100212004230A300A40167200130AD0018200C3049
:10022200AD0018200130A8000130A9002030AA003A
:06023200B5201A291B296A
:02400E004A2F37
:00000001FF
