:02000000CA280C
:10000600710DF80DF90D7408F8027508031C750FCB
:10001600F902F00DF10D0F30FC00710DF80DF90D20
:100026007408701C1C28F8027508031C750FF90269
:100036002128F80775080318750FF907F00DF10D5B
:10004600FC0B102870182D287408F807750803187B
:08005600750FF9070000080016
:10005E00831203137408003A031D3E287508003AF4
:10006E00031D3E28FF30F0007F30F10097288312E9
:10007E000313FD01F901F80171087004031900342E
:10008E0071087506FA00FA1BFD09FB01F51F5428CD
:10009E00F409F509F40A0319F50AF11F5B28F009B2
:1000AE00F109F00A0319F10A71087504FA00FA1B36
:1000BE00702803207B188328FD1F0034F009F109F6
:1000CE00F00A0319F10AF809F909F80A0319F90AED
:1000DE000034F51F7F28F11B7B287108F90070088A
:1000EE00F800F101F0016328F101F001F00A00348B
:1000FE00F109F009FB0A6028F80A0319F90A7408D5
:10010E007802031D632875087902031D6328F9011F
:10011E00F801F00A0319F10AF11F63280000FF34F9
:02012E000800C7
:0E0130008312031321088A00200882000800B1
:10013E0083120313FB01FA01F9018030F800F10C70
:10014E00F00C031CB3287408F90775080318750F13
:10015E00FA070318FB0A0310F01FBB287408FA07EE
:10016E0075080318750FFB07FB0CFA0CF90CF80C4D
:10017E00031CA6287B08F3007A08F2007908F10028
:06018E007808F0000800F3
:10019400E13083120313AA000530AB00E830F40009
:1001A4000330F5002A08F0002B08F1002F20700816
:1001B400A2007108A300E830F4000330F5009F208A
:1001C40070082A02AC007108031C013E2B02AD002A
:1001D4006430F4000030F5002C08F0002D08F10024
:1001E4002F207008A4007108A5006430F4000030CA
:1001F400F5009F207008AC02031CAD037108AD022A
:100204000A30F4000030F5002C08F0002D08F1004D
:100214002F207008A6007108A7000A30F4000030EF
:10022400F5009F2070082C02A8007108031C013EF1
:100234002D02A900831686018701013083128600EE
:100244002808923EF00001300318013E2907F1000E
:100254007008A0007108A10098208A110A12870072
:100264008230FC00DD30FD00FD0B3629FC0B362905
:1002740000000000023086002608923EF0000130A3
:100284000318013E2707F1007008A0007108A100BF
:1002940098208A110A1287008230FC00DD30FD00AC
:1002A400FD0B5229FC0B522900000000043086008B
:1002B4002408923EF00001300318013E2507F100A6
:1002C4007008A0007108A10098208A110A12870002
:1002D4008230FC00DD30FD00FD0B6E29FC0B6E2925
:1002E40000000000083086002208923EF000013031
:1002F4000318013E2307F1007008A0007108A10053
:1003040098208A110A1287008230FC00DD30FD003B
:10031400FD0B8A29FC0B8A29000000001F29912962
:100324003F3406345B344F3466346D347D340734E3
:040334007F346F346F
:02400E004A2F37
:00000001FF
