:020000000328D3
:10000600FF30831603138600870188018312061DBD
:100016006E28861C6E28013087008230FC00DD3099
:10002600FD00FD0B1428FC0B142800000000023014
:1000360087008230FC00DD30FD00FD0B2028FC0B24
:10004600202800000000043087008230FC00DD30EC
:10005600FD00FD0B2C28FC0B2C28000000000830AE
:1000660087008230FC00DD30FD00FD0B3828FC0BDC
:10007600382800000000103087008230FC00DD3098
:10008600FD00FD0B4428FC0B442800000000203036
:1000960087008230FC00DD30FD00FD0B5028FC0B94
:1000A600502800000000403087008230FC00DD3020
:1000B600FD00FD0B5C28FC0B5C2800000000803076
:1000C60087008230FC00DD30FD00FD0B6828FC0B4C
:1000D600682800000000061DC6288618C62880303D
:1000E60087008230FC00DD30FD00FD0B7828FC0B1C
:1000F600782800000000403087008230FC00DD30A8
:10010600FD00FD0B8428FC0B842800000000203035
:1001160087008230FC00DD30FD00FD0B9028FC0BD3
:10012600902800000000103087008230FC00DD308F
:10013600FD00FD0B9C28FC0B9C28000000000430F1
:1001460087008230FC00DD30FD00FD0BA828FC0B8B
:10015600A82800000000023087008230FC00DD3055
:10016600FD00FD0BB428FC0BB42800000000013094
:1001760087008230FC00DD30FD00FD0BC028FC0B43
:10018600C028000000000619FA28861CFA288830C4
:1001960087008230FC00DD30FD00FD0BD028FC0B13
:1001A600D02800000000413087008230FC00DD309E
:1001B600FD00FD0BDC28FC0BDC28000000002230D3
:1001C60087008230FC00DD30FD00FD0BE828FC0BCB
:1001D600E82800000000143087008230FC00DD3083
:1001E600FD00FD0BF428FC0BF428000000000619A6
:1001F6002E2986182E29813087008230FC00DD30BA
:10020600FD00FD0B0429FC0B04290000000006304C
:1002160087008230FC00DD30FD00FD0B1029FC0B51
:10022600102900000000183087008230FC00DD3005
:10023600FD00FD0B1C29FC0B1C2900000000603092
:1002460087008230FC00DD30FD00FD0B2829FC0B09
:0A02560028290000000009282F29C4
:02400E004A2F37
:00000001FF
