:02000000EE28E8
:10000600103083120313FD00FD0B072800000800C3
:10001600083083120313FC002330FD00FD0B11286A
:06002600FC0B112808008C
:04002C0000000800C8
:1000300083120313C31B1E2886111F288615431B1A
:100040002328061124280615C31A282886102928D3
:100050008614431A2D2806102E280614201832283C
:10006000061633280612861616208612C3193A2859
:1000700086113B28861543193F280611402806158E
:10008000C3184428861045288614431849280610AA
:100090004A28061420184E2806164F2806128616DF
:1000A00016208612201C56280B20572803200800F3
:1000B0008312031320104208C300182020140800E4
:1000C0007228803083120313BE008528C030BE0022
:1000D00085289430BE008528D430BE008528803025
:1000E000BE008528831203133E08013A03196128D4
:1000F0003E08023A031966283E08033A03196928A4
:100100003E08043A03196C286F283F03F0003E08AC
:10011000F0077008BE007008C30018202010C1014D
:10012000410840078400000803199E284108400741
:1001300084000008C2005820C10A9028201408003A
:1001400083160313861206120610861006118611F6
:1001500083128612061286110611861006100B20D5
:100160000B200B20861406148616162086120B20F0
:100170008616162086120B208616162086120B2055
:1001800006108616162086120B208616162086125A
:10019000861086158616162086120B2086110614E8
:1001A00086161620861206108616162086120B203A
:1001B00086161620861206148616162086120B2026
:1001C0000610861616208612861506158614061445
:0C01D0008616162086120B202014080052
:1001DC00533083120313A3004130A4004C30A5000C
:1001EC004130A6004D30A7002030A8004130A900B6
:1001FC004C30AA004930AB004B30AC004F30AD0056
:10020C004D30AE00AF014230B0004F30B1004E3037
:10021C00B2004A30B3004F30B4005530B500523004
:10022C00B600B7015330B8004130B9004C30BA00B9
:10023C005530BB005430BC00BD01A0200130C300C0
:10024C0018200C30C3001820071C382987183829AF
:10025C00071938290130BE000130BF002330C0001F
:10026C0060205729871C4629071846290719462953
:10027C000130BE000130BF003030C0006020572973
:10028C00071D542907185429871854290130BE001A
:10029C000130BF003830C000602057290130C30046
:0602AC0018202A29582940
:02400E004A2F37
:00000001FF
