:020000000A28CC
:0E0006008312031321088A00200882000800DC
:1000140083120313A201A301FF3083168600870114
:1000240083128701A20A0319A30A8614861C7B285B
:1000340080302306F00080307002031D23280A302C
:100044002202031847282208D23EF0000030031889
:10005400013E2307F1007008A0007108A1000320ED
:100064008A110A1287000330FB008A30FC005530E5
:10007400FD00FD0B3B28FC0B3B28FB0B3B28000041
:1000840000000230A2070318A30A00302306031D50
:100094004D28093022060319582800302306031D71
:1000A40055280B302206031958287A282208D23EF4
:1000B400F00000300318013E2307F1007008A0008F
:1000C4007108A10003208A110A1287000330FB0083
:1000D4008A30FC005530FD00FD0B6E28FC0B6E28A9
:1000E400FB0B6E28000000000130A2000030A300CA
:1000F4001728A20A0319A30A0614061CD028803064
:10010400F000803023067002031D8A282208003C78
:1001140003189C282208D23EF00000300318013E48
:100124002307F1007008A0007108A10003208A11C0
:100134000A1287000330FB008A30FC005530FD00B2
:10014400FD0BA228FC0BA228FB0BA2280000000038
:1001540002302207F10023080318013EF20071085F
:10016400A2007208A30000307206031DBB280A30E7
:100174007106031DCF28A201A3012208D23EF0007C
:1001840000300318013E2307F1007008A000710835
:10019400A10003208A110A1287007E281428D1287E
:1001A4003F3406345B344F3466346D347D34073465
:0401B4007F346F34F1
:02400E004A2F37
:00000001FF
