:02000000632D6E
:10000600103083120313FD00FD0B072800000800C3
:0400160000000800DE
:10001A00083083120313FC002330FD00FD0B132864
:06002A00FC0B1328080086
:0E003000F201F101F001F801F30100300800C7
:10003E0083120313D31B2528861126288615531BDE
:10004E002A2806112B280615D31A2F288610302899
:10005E008614531A34280610352806142B183928FE
:10006E0006163A28061286160B208612D319412838
:10007E00861142288615531946280611472806155B
:10008E00D3184B2886104C28861453185028061067
:10009E00512806142B1855280616562806128616B1
:1000AE000B2086122B1C5D280D205E2803200800D5
:0800BE00FA1FF21300300800E4
:1000C6007B15FB1F6D280130F300F201F101F001F1
:0800D600FA0DF20CFF300800E6
:1000DE00FB14FB1F7928FF30F300F200F100F00053
:0800EE00FA0DF20CFF300800CE
:1000F6007C18B128FC1882287C19D0287B28A001FE
:100106007208031DA2287108F2007008F100780831
:10011600F000F801A0157208031DA2287108F2006C
:100126007008F100F001A01120167208031DA22824
:100136007108F200F101A01572080319C4282008FD
:10014600F302031D031CC8280310F21BB128F80D87
:10015600F00DF10DF20DF30BA828C8287B1B701CBF
:10016600CC28F81FCC28F00A0319F10A0319F20A61
:10017600031DCC28F20CF10CF00CF30A0319D0285D
:10018600CC280130FC001820D3280230FC00632064
:10019600D3280430FC005F20D3280830FC006F20F1
:0401A600000008004D
:1001AA0083120313FD01F801700803190034740661
:1001BA00FA00FA1BFD09FB01F41FE528F409F40A09
:1001CA00F01FE928F009F00A70087404FA00FA1B13
:1001DA000D297408F802F00D700DF80D7408F8076F
:1001EA00F00D0630FC00700DF80D74087018F80256
:1001FA00701CF807F00DFC0BF828701CF8077B1828
:10020A001B29FD1F0034F009F00AF809F80A003426
:10021A00F41F1829F01B15297008F800F0010629A7
:10022A00F001F00A0034F009FB0AEE28F80A740813
:10023A007802031D0629F801F00AF01F0629FF3487
:02024A000800AA
:10024C00831203135108F2007208F100F20A5208EB
:10025C00F000D20A700884000008F00071088400D5
:10026C007008800071088400000803193E292A29AF
:06027C005108F00008002B
:06028200FB15FF3008002F
:10028800831203132B105108D3001F202B140800CE
:1002980083120313FA017308031D7A147708031DE8
:1002A800FA147A0803199829033A031963297A1862
:1002B8006029F61F96299429F21F94299629720815
:1002C8008039FA00F21376088039F6137A06031992
:1002D80071297A0803199429962977087302031952
:1002E8007829031C8C2990297608720203197F2922
:1002F800031C8C2990297508710203198629031C8F
:100308008C299029740870020319982903189029D8
:10031800FA08031996299429FA08031994299629A1
:10032800031408000310080003140315080008004C
:1003380083120313FB017308031D77080319F329BC
:1003480072087606FA007708F3077E30031CB02996
:10035800F3020318F629B329F302031CF9297208DA
:10036800F8007108FC007008FD00F817F617031074
:10037800F201F101F0011830A0007D1CCD297408AC
:10038800F00775080318750FF10776080318760F3C
:10039800F207F20CF10CF00CF80CFC0CFD0C03103D
:1003A800A00BC129F21BDD29F80DF00DF10DF20D9E
:1003B800F3037B1B701CEF29F81FEF29F00A0319C0
:1003C800F10A0319F20A031DEF29F20CF10CF00CE3
:1003D800F30A0319F629FA1FF2130030FB2901303A
:1003E8001820FB2902306F20FB290430632000000D
:0203F8000800FB
:0E03FA00831203132D088A002C0882000800CD
:10040800831203137408003A031D1F2A7508003A63
:10041800031D1F2A7608003A031D1F2A7708003A91
:10042800031D1F2AFF30F000FF30F1007F30F2007B
:10043800FF30F300BA2A8312031377080319AE2A90
:1004480073080319B12A720876068039FA00F21780
:10045800F617A0017208F8007108FC007008FD008A
:100468007408FD027508031C750FFC027608031C4E
:10047800760FF802F801FC01FD01031C4A2A03105B
:10048800F20CF10CF00CF80C0130A0007708F30224
:10049800031C542A7E302007F3070318B42A592A6C
:1004A8007E302007F307031CB72A1830FA07FD0D22
:1004B800FC0DF80DF00DF10DF20DA00D7408F00211
:1004C8007508031C750FF1027608031C760FF202FB
:1004D800760DA004201C722A7D147D2A7408F0076A
:1004E80075080318750FF10776080318760AF207DE
:1004F8007D10FA031F307A05031D5B2A7B1B7D1CC8
:10050800A42A0310F00DF10DF20DA00D7408F002ED
:100518007508031C750FF1027608031C760FF202AA
:10052800760D20040139FD070318FC0A0319F80A9F
:10053800031DA42AF80CFC0CFD0CF30A0319B42AB9
:10054800FA1FF8137808F2007C08F1007D08F00023
:100558000030B92A01304121B92A02301820B92ABD
:0E05680004306F20B92A08306320000008001C
:10057600CD2A803083120313C400E02AC030C400A1
:10058600E02A9430C400E02AD430C400E02A803047
:10059600C400E02A831203134408013A0319BC2A53
:1005A6004408023A0319C12A4408033A0319C42A23
:1005B6004408043A0319C72ACA2A4503F000440826
:1005C600F0077008C4007008D3001F202B10C70165
:1005D60047084607840000080319F92A4708460712
:1005E60084000008D1004421C70AEB2A2B14080016
:1005F60083120313CF01D0014408CB004508CC0079
:100606004608CD004708CE004E08FF3A031D152BBD
:100616004D08FF3A031D152B4C08FF3A031D152BF9
:100626004B08FF3A031D1F2B4808D1002330D20088
:1006360026210330F000F82C0130C900CD1F2E2BE7
:1006460080304D06F0007008CD00C90A48088400C5
:100656002D308000C80A0030F0004E06031D3D2BE9
:1006660070084D06031D3D2B70084C06031D3D2BDF
:100676004B08003A031D462B4808D1002130D20012
:100686002621F001F82C4E08FF3A031D542B4D0885
:10069600003A031D542B4C08003A031D542B4B08FB
:1006A600003A031D5E2B4808D1002730D2002621D0
:1006B6004908F000F82C0030F4000030F500003056
:1006C600F6007F30F7004B08F0004C08F1004D08AB
:1006D600F2004E08F3004C21013003180030F00000
:1006E60070080319912B4B08F0004C08F1004D08D7
:1006F600F2004E08F3000030F4000030F500203020
:10070600F6008230F7009C217008CB007108CC00FF
:100716007208CD007308CE00D0035E2B0030F400C3
:100726000030F5002030F6008230F7004B08F0006C
:100736004C08F1004D08F2004E08F3004C21013040
:10074600031C0030F00070080319C42B4B08F0009E
:100756004C08F1004D08F2004E08F300CD30F400CD
:10076600CC30F5004C30F6007B30F7009C21700849
:10077600CB007108CC007208CD007308CE00D00AF9
:10078600912BFF304B05F800FF304C05F9007F3008
:100796004D05FA0000304E05FB007808F400790894
:1007A600F5007A08F6007B08F700F40DF50DF60D56
:1007B600F70D741000304B05F00000304C05F100C9
:1007C60000304D05F200FF304E05F3007008CB00F7
:1007D6007108CC007208CD007308CE0074084B0473
:1007E600F00075084C04F10076084D04F200770815
:1007F6004E04F3007008CB007108CC007208CD00DF
:100806007308CE007F304E02F0007008CA00013037
:10081600CE007008F4004B08F0004C08F1004D08BB
:10082600F2004E08F30074080319202CF00DF10DA8
:10083600F20DF30D7010FF3E172C7008CB007108F7
:10084600CC007208CD007308CE004E08303EF00092
:100856004808840070088000C80A80305006F000FE
:100866008030013A7002031C412C8030063AF000B9
:10087600803050067002031C412C482C4808840026
:100886002E308000C80A0130CF000630CA004A0860
:10089600003A0319A62CCE014B08F0004C08F100D3
:1008A6004D08F2004E08F300F00DF10DF20DF30DB8
:1008B6007010F00DF10DF20DF30D70104B08F007EE
:1008C6004C0803184C0FF1074D0803184D0FF2079B
:1008D6004E0803184E0FF3077008CB007108CC00C2
:1008E6007208CD007308CE004B08F0004C08F100EA
:1008F6004D08F2004E08F300F00DF10DF20DF30D68
:1009060070107008CB007108CC007208CD00730817
:10091600CE004E08303EF000480884007008800083
:10092600C80A4F08003A031DA42CD0035008003A09
:10093600031DA42C480884002E308000C80A01300C
:10094600CF00CA034A2CFF30480784000008303A1B
:10095600031DAF2CC803A62CFF30480784000008EF
:100966002E3A031DB72CC8035008003A0319F42C7D
:100976004808840065308000C80A80305006F000C0
:100986008030003A70020318D02C480884002D30BD
:100996008000C80A5008003CD0005008CA008030C9
:1009A600093AF0008030500670020318E62C0A302F
:1009B600F4004A08F000D5203030F00748088400DB
:1009C60070088000C80A0A30F4004A08F000D520F2
:1009D6007808F0003030F00748088400700880007E
:0C09E600C80A480884008001F0010800E5
:1009F200831203137008F800FB01FC019E30F30020
:100A0200FA01F201F101F0010230FC007B20080042
:100A1200831603138612061206108610061186111B
:100A220083128612061286110611861006100D20F8
:100A32000D200D208614061486160B2086120D201A
:100A420086160B2086120D2086160B2086120D208C
:100A5200061086160B2086120D2086160B20861293
:100A62008610861586160B2086120D208611061416
:100A720086160B208612061086160B2086120D2073
:100A820086160B208612061486160B2086120D205F
:100A9200061086160B208612861506158614061475
:0C0AA20086160B2086120D202B14080075
:100AAE00FD218A110A128000840AAC0A0319AD0ACC
:080ABE00F003031D572D080091
:100AC600D02509250130D3001F200C30D3001F206C
:100AD6000730831681008B010F3087008312AE0129
:100AE600AF01071CB32D00302F06031D7C2D0030EF
:100AF6002E06031DB32D0108F000F9242830F4005A
:100B06002C30F5007130F6007130F7009C2170082A
:100B1600F4007108F5007208F6007308F70000305B
:100B2600F0000030F1000030F2007F30F3000422C4
:100B360081010130AE000030AF007008C4007108BA
:100B4600C5007208C6007308C7003030C800FB2213
:100B56000130C4000130C5003030C600BB22BF2DB5
:100B66000718BF2D00302F06031DBB2D01302E06A2
:0C0B7600031DBF2DAE01AF01742DC02D7A
:100BA000213084000A3083120313F000C630AC00F9
:080BB0000530AD0057250800D7
:040B8C0030340034CD
:080B90004E3461344E34003490
:080B980049344E3446340034A8
:02400E004A2F37
:00000001FF
