:0200000088294D
:0400060000000800EE
:10000A00103083120313FD00FD0B092800000800BD
:10001A00083083120313FC002330FD00FD0B132864
:06002A00FC0B1328080086
:1000300083120313BF1B1E2886131F2886173F1B1E
:100040002328061324280617BF1A282886122928D1
:1000500086163F1A2D2806122E2806163118322829
:10006000061533280611861503208611BF193A2874
:1000700086133B2886173F193F280613402806178A
:10008000BF1844288612452886163F1849280612AC
:100090004A28061631184E2806154F2806118615CF
:1000A00003208611311C56280D20572805200800F2
:0E00B000033083120313FD00FD0B5C280800D3
:1000BE008312031331103A08BF00182031140800C0
:0E00CE008312031335088A00340882000800EC
:1000DC0083120313BA01BC01BD011030BE00043001
:1000EC003D0203189F28F03088008030F000700823
:1000FC00083E84003E09F0007008800003200320B5
:10010C000F300805F0007008BB007008031999281F
:10011C003C08BA003B0803199728BB0CBB13BA0A5E
:10012C0090280430BD00BE0D3E100430BC07BD0A43
:08013C0075283A08F0000800E4
:100144006E207008B6000F300805F0000319AC28C3
:0A0154005820A5283608F000080026
:10015E00C128803083120313B600D428C030B600F5
:10016E00D4289430B600D428D430B600D4288030A9
:10017E00B600D428831203133608013A0319B028A7
:10018E003608023A0319B5283608033A0319B82877
:10019E003608043A0319BB28BE283703F000360888
:1001AE00F0077008B60031147008BF001820311027
:0A01BE003808BF00182031140800B3
:1001C800F628803083120313B6000929C030B60020
:1001D80009299430B6000929D430B600092980309D
:1001E800B6000929831203133608013A0319E528D2
:1001F8003608023A0319EA283608033A0319ED28A3
:100208003608043A0319F028F3283703F0003608B3
:10021800F0077008B6007008BF0018203110B90147
:1002280039083807840000080319222939083807D3
:1002380084000008BA005F20B90A142931140800A4
:1002480083160313861106110612861206138613E7
:1002580083128611061186130613861206120D20C4
:100268000D200D20861606168615032086110D20F2
:100278008615032086110D208615032086110D2072
:1002880006128615032086110D2086150320861177
:10029800861286178615032086110D2086130616EA
:1002A80086150320861106128615032086110D2057
:1002B80086150320861106168615032086110D2043
:1002C8000612861503208611861706178616061647
:0C02D8008615032086110D20311408004B
:1002E40067208A110A128000840AB40A0319B50A25
:0802F400F003031D722908004C
:1002FC00803083120313F0007008083E8400FF3036
:04030C008000080065
:10031000543083120313A0006130A1007030A2009A
:100320006530A3007A30A4002030A5007530A60007
:100330006E30A7006530A8002030A9007430AA00F4
:100340006F30AB007530AC006330AD006830AE008C
:100350006530AF00B00124210130BF0018207E219C
:100360000130B6000130B7002030B800E42006307C
:10037000FB001330FC00AD30FD00FD0BBD29FC0B74
:10038000BD29FB0BBD29000000000130BF00182073
:10039000B201B301A2207008B200B30132083304E5
:1003A0000319CA29212A3130B2000030B300A12A32
:1003B0003230B2000030B300A12A3330B200003036
:1003C000B300A12A9730B200B301A12A3430B200A1
:1003D0000030B300A12A3530B2000030B300A12AAA
:1003E0003630B2000030B300A12A7830B2000030BD
:1003F000B300A12A3730B2000030B300A12A383050
:10040000B2000030B300A12A3930B2000030B3008E
:10041000A12A2F30B2000030B300A12A8F30B200E1
:10042000B301A12A3030B2000030B300A12A3D3020
:10043000B2000030B300A12A2B30B2000030B3006C
:10044000A12A00303306031D272A01303206031982
:10045000D32900303306031D2F2A02303206031938
:10046000D82900303306031D372A0330320603191A
:10047000DD2900303306031D3F2A043032060319FC
:10048000E22900303306031D472A053032060319DE
:10049000E62900303306031D4F2A063032060319C1
:1004A000EB2900303306031D572A073032060319A3
:1004B000F02900303306031D5F2A08303206031985
:1004C000F52900303306031D672A09303206031967
:1004D000FA2900303306031D6F2A0A303206031949
:1004E000FF2900303306031D772A0B30320603192B
:1004F000042A00303306031D7F2A0C30320603190C
:10050000092A00303306031D872A0D3032060319ED
:100510000E2A00303306031D8F2A0E3032060319CF
:10052000122A00303306031D972A0F3032060319B2
:10053000172A00303306031D9F2A10303206031994
:100540001C2A0130B6000230B7003208B800AF20D4
:04055000C829A92AE3
:02400E004A2F37
:00000001FF
